{
  "contractName": "Multicall2",
  "abi": [
    {
      "constant": false,
      "inputs": [
        {
          "components": [
            {
              "internalType": "address",
              "name": "target",
              "type": "address"
            },
            {
              "internalType": "bytes",
              "name": "callData",
              "type": "bytes"
            }
          ],
          "internalType": "struct Multicall2.Call[]",
          "name": "calls",
          "type": "tuple[]"
        }
      ],
      "name": "aggregate",
      "outputs": [
        {
          "internalType": "uint256",
          "name": "blockNumber",
          "type": "uint256"
        },
        {
          "internalType": "bytes[]",
          "name": "returnData",
          "type": "bytes[]"
        }
      ],
      "payable": false,
      "stateMutability": "nonpayable",
      "type": "function"
    },
    {
      "constant": false,
      "inputs": [
        {
          "components": [
            {
              "internalType": "address",
              "name": "target",
              "type": "address"
            },
            {
              "internalType": "bytes",
              "name": "callData",
              "type": "bytes"
            }
          ],
          "internalType": "struct Multicall2.Call[]",
          "name": "calls",
          "type": "tuple[]"
        }
      ],
      "name": "block_and_aggregate",
      "outputs": [
        {
          "internalType": "uint256",
          "name": "blockNumber",
          "type": "uint256"
        },
        {
          "internalType": "bytes32",
          "name": "blockHash",
          "type": "bytes32"
        },
        {
          "components": [
            {
              "internalType": "bool",
              "name": "success",
              "type": "bool"
            },
            {
              "internalType": "bytes",
              "name": "returnData",
              "type": "bytes"
            }
          ],
          "internalType": "struct Multicall2.Result[]",
          "name": "returnData",
          "type": "tuple[]"
        }
      ],
      "payable": false,
      "stateMutability": "nonpayable",
      "type": "function"
    },
    {
      "constant": false,
      "inputs": [
        {
          "internalType": "bool",
          "name": "require_success",
          "type": "bool"
        },
        {
          "components": [
            {
              "internalType": "address",
              "name": "target",
              "type": "address"
            },
            {
              "internalType": "bytes",
              "name": "callData",
              "type": "bytes"
            }
          ],
          "internalType": "struct Multicall2.Call[]",
          "name": "calls",
          "type": "tuple[]"
        }
      ],
      "name": "try_block_and_aggregate",
      "outputs": [
        {
          "internalType": "uint256",
          "name": "blockNumber",
          "type": "uint256"
        },
        {
          "internalType": "bytes32",
          "name": "blockHash",
          "type": "bytes32"
        },
        {
          "components": [
            {
              "internalType": "bool",
              "name": "success",
              "type": "bool"
            },
            {
              "internalType": "bytes",
              "name": "returnData",
              "type": "bytes"
            }
          ],
          "internalType": "struct Multicall2.Result[]",
          "name": "returnData",
          "type": "tuple[]"
        }
      ],
      "payable": false,
      "stateMutability": "nonpayable",
      "type": "function"
    },
    {
      "constant": false,
      "inputs": [
        {
          "internalType": "bool",
          "name": "require_success",
          "type": "bool"
        },
        {
          "components": [
            {
              "internalType": "address",
              "name": "target",
              "type": "address"
            },
            {
              "internalType": "bytes",
              "name": "callData",
              "type": "bytes"
            }
          ],
          "internalType": "struct Multicall2.Call[]",
          "name": "calls",
          "type": "tuple[]"
        }
      ],
      "name": "try_aggregate",
      "outputs": [
        {
          "components": [
            {
              "internalType": "bool",
              "name": "success",
              "type": "bool"
            },
            {
              "internalType": "bytes",
              "name": "returnData",
              "type": "bytes"
            }
          ],
          "internalType": "struct Multicall2.Result[]",
          "name": "returnData",
          "type": "tuple[]"
        }
      ],
      "payable": false,
      "stateMutability": "nonpayable",
      "type": "function"
    },
    {
      "constant": true,
      "inputs": [],
      "name": "getBlockHash",
      "outputs": [
        {
          "internalType": "bytes32",
          "name": "blockHash",
          "type": "bytes32"
        }
      ],
      "payable": false,
      "stateMutability": "view",
      "type": "function"
    },
    {
      "constant": true,
      "inputs": [],
      "name": "getBlockNumber",
      "outputs": [
        {
          "internalType": "uint256",
          "name": "blockNumber",
          "type": "uint256"
        }
      ],
      "payable": false,
      "stateMutability": "view",
      "type": "function"
    },
    {
      "constant": true,
      "inputs": [],
      "name": "getCurrentBlockCoinbase",
      "outputs": [
        {
          "internalType": "address",
          "name": "coinbase",
          "type": "address"
        }
      ],
      "payable": false,
      "stateMutability": "view",
      "type": "function"
    },
    {
      "constant": true,
      "inputs": [],
      "name": "getCurrentBlockDifficulty",
      "outputs": [
        {
          "internalType": "uint256",
          "name": "difficulty",
          "type": "uint256"
        }
      ],
      "payable": false,
      "stateMutability": "view",
      "type": "function"
    },
    {
      "constant": true,
      "inputs": [],
      "name": "getCurrentBlockGasLimit",
      "outputs": [
        {
          "internalType": "uint256",
          "name": "gaslimit",
          "type": "uint256"
        }
      ],
      "payable": false,
      "stateMutability": "view",
      "type": "function"
    },
    {
      "constant": true,
      "inputs": [],
      "name": "getCurrentBlockTimestamp",
      "outputs": [
        {
          "internalType": "uint256",
          "name": "timestamp",
          "type": "uint256"
        }
      ],
      "payable": false,
      "stateMutability": "view",
      "type": "function"
    },
    {
      "constant": true,
      "inputs": [
        {
          "internalType": "address",
          "name": "addr",
          "type": "address"
        }
      ],
      "name": "getEthBalance",
      "outputs": [
        {
          "internalType": "uint256",
          "name": "balance",
          "type": "uint256"
        }
      ],
      "payable": false,
      "stateMutability": "view",
      "type": "function"
    },
    {
      "constant": true,
      "inputs": [],
      "name": "getLastBlockHash",
      "outputs": [
        {
          "internalType": "bytes32",
          "name": "blockHash",
          "type": "bytes32"
        }
      ],
      "payable": false,
      "stateMutability": "view",
      "type": "function"
    }
  ],
  "bytecode": "0x608060405234801561001057600080fd5b50610dd5806100206000396000f3fe608060405234801561001057600080fd5b50600436106100b45760003560e01c806372425d9d1161007157806372425d9d146101a657806386d516e8146101c45780639663f88f146101e2578063a41dd75614610200578063a7c4c00414610230578063a8b0574e14610262576100b4565b80630f28c97d146100b9578063252dba42146100d757806327e86d6e1461010857806342cbb15c146101265780634d2301cc14610144578063647110a114610174575b600080fd5b6100c1610280565b6040516100ce9190610b0b565b60405180910390f35b6100f160048036036100ec919081019061078c565b610288565b6040516100ff929190610b26565b60405180910390f35b6101106103e1565b60405161011d9190610ad0565b60405180910390f35b61012e6103ed565b60405161013b9190610b0b565b60405180910390f35b61015e60048036036101599190810190610763565b6103f5565b60405161016b9190610b0b565b60405180910390f35b61018e600480360361018991908101906107cd565b610416565b60405161019d93929190610b56565b60405180910390f35b6101ae610435565b6040516101bb9190610b0b565b60405180910390f35b6101cc61043d565b6040516101d99190610b0b565b60405180910390f35b6101ea610445565b6040516101f79190610ad0565b60405180910390f35b61021a600480360361021591908101906107cd565b61044e565b6040516102279190610aae565b60405180910390f35b61024a6004803603610245919081019061078c565b6105c6565b60405161025993929190610b56565b60405180910390f35b61026a6105e9565b6040516102779190610a93565b60405180910390f35b600042905090565b6000606043915082516040519080825280602002602001820160405280156102c457816020015b60608152602001906001900390816102af5790505b50905060008090505b83518110156103db57600060608583815181106102e657fe5b60200260200101516000015173ffffffffffffffffffffffffffffffffffffffff1686848151811061031457fe5b60200260200101516020015160405161032d9190610a7c565b6000604051808303816000865af19150503d806000811461036a576040519150601f19603f3d011682016040523d82523d6000602084013e61036f565b606091505b5091509150816103b4576040517f08c379a00000000000000000000000000000000000000000000000000000000081526004016103ab90610aeb565b60405180910390fd5b808484815181106103c157fe5b6020026020010181905250505080806001019150506102cd565b50915091565b60006001430340905090565b600043905090565b60008173ffffffffffffffffffffffffffffffffffffffff16319050919050565b60008060604392508240915061042c858561044e565b90509250925092565b600044905090565b600045905090565b60004340905090565b6060815160405190808252806020026020018201604052801561048b57816020015b6104786105f1565b8152602001906001900390816104705790505b50905060008090505b82518110156105bf57600060608483815181106104ad57fe5b60200260200101516000015173ffffffffffffffffffffffffffffffffffffffff168584815181106104db57fe5b6020026020010151602001516040516104f49190610a7c565b6000604051808303816000865af19150503d8060008114610531576040519150601f19603f3d011682016040523d82523d6000602084013e610536565b606091505b509150915085156105825781610581576040517f08c379a000000000000000000000000000000000000000000000000000000000815260040161057890610aeb565b60405180910390fd5b5b60405180604001604052808315158152602001828152508484815181106105a557fe5b602002602001018190525050508080600101915050610494565b5092915050565b60008060606105d6600185610416565b8093508194508295505050509193909250565b600041905090565b6040518060400160405280600015158152602001606081525090565b60008135905061061c81610d64565b92915050565b600082601f83011261063357600080fd5b813561064661064182610bc1565b610b94565b9150818183526020840193506020810190508360005b8381101561068c578135860161067288826106ff565b84526020840193506020830192505060018101905061065c565b5050505092915050565b6000813590506106a581610d7b565b92915050565b600082601f8301126106bc57600080fd5b81356106cf6106ca82610be9565b610b94565b915080825260208301602083018583830111156106eb57600080fd5b6106f6838284610d11565b50505092915050565b60006040828403121561071157600080fd5b61071b6040610b94565b9050600061072b8482850161060d565b600083015250602082013567ffffffffffffffff81111561074b57600080fd5b610757848285016106ab565b60208301525092915050565b60006020828403121561077557600080fd5b60006107838482850161060d565b91505092915050565b60006020828403121561079e57600080fd5b600082013567ffffffffffffffff8111156107b857600080fd5b6107c484828501610622565b91505092915050565b600080604083850312156107e057600080fd5b60006107ee85828601610696565b925050602083013567ffffffffffffffff81111561080b57600080fd5b61081785828601610622565b9150509250929050565b600061082d8383610960565b905092915050565b60006108418383610a30565b905092915050565b61085281610cbf565b82525050565b600061086382610c35565b61086d8185610c70565b93508360208202850161087f85610c15565b8060005b858110156108bb578484038952815161089c8582610821565b94506108a783610c56565b925060208a01995050600181019050610883565b50829750879550505050505092915050565b60006108d882610c40565b6108e28185610c81565b9350836020820285016108f485610c25565b8060005b8581101561093057848403895281516109118582610835565b945061091c83610c63565b925060208a019950506001810190506108f8565b50829750879550505050505092915050565b61094b81610cd1565b82525050565b61095a81610cdd565b82525050565b600061096b82610c4b565b6109758185610c92565b9350610985818560208601610d20565b61098e81610d53565b840191505092915050565b60006109a482610c4b565b6109ae8185610ca3565b93506109be818560208601610d20565b80840191505092915050565b60006109d7602183610cae565b91507f4d756c746963616c6c32206167677265676174653a2063616c6c206661696c6560008301527f64000000000000000000000000000000000000000000000000000000000000006020830152604082019050919050565b6000604083016000830151610a486000860182610942565b5060208301518482036020860152610a608282610960565b9150508091505092915050565b610a7681610d07565b82525050565b6000610a888284610999565b915081905092915050565b6000602082019050610aa86000830184610849565b92915050565b60006020820190508181036000830152610ac881846108cd565b905092915050565b6000602082019050610ae56000830184610951565b92915050565b60006020820190508181036000830152610b04816109ca565b9050919050565b6000602082019050610b206000830184610a6d565b92915050565b6000604082019050610b3b6000830185610a6d565b8181036020830152610b4d8184610858565b90509392505050565b6000606082019050610b6b6000830186610a6d565b610b786020830185610951565b8181036040830152610b8a81846108cd565b9050949350505050565b6000604051905081810181811067ffffffffffffffff82111715610bb757600080fd5b8060405250919050565b600067ffffffffffffffff821115610bd857600080fd5b602082029050602081019050919050565b600067ffffffffffffffff821115610c0057600080fd5b601f19601f8301169050602081019050919050565b6000819050602082019050919050565b6000819050602082019050919050565b600081519050919050565b600081519050919050565b600081519050919050565b6000602082019050919050565b6000602082019050919050565b600082825260208201905092915050565b600082825260208201905092915050565b600082825260208201905092915050565b600081905092915050565b600082825260208201905092915050565b6000610cca82610ce7565b9050919050565b60008115159050919050565b6000819050919050565b600073ffffffffffffffffffffffffffffffffffffffff82169050919050565b6000819050919050565b82818337600083830152505050565b60005b83811015610d3e578082015181840152602081019050610d23565b83811115610d4d576000848401525b50505050565b6000601f19601f8301169050919050565b610d6d81610cbf565b8114610d7857600080fd5b50565b610d8481610cd1565b8114610d8f57600080fd5b5056fea365627a7a72315820e033103eab6bce99f077dd5d7fe2909eae2401c89dae752f27217326c48f2cdf6c6578706572696d656e74616cf564736f6c63430005100040",
  "source": "pragma solidity >=0.5.0;\npragma experimental ABIEncoderV2;\n\n/// @title Multicall2 - Aggregate results from multiple read-only function calls. Allow failures\n/// @author Michael Elliot <mike@makerdao.com>\n/// @author Joshua Levine <joshua@makerdao.com>\n/// @author Nick Johnson <arachnid@notdot.net>\n/// @author Bryan Stitt <bryan@satoshiandkin.com>\n\ncontract Multicall2 {\n    struct Call {\n        address target;\n        bytes callData;\n    }\n    struct Result {\n        bool success;\n        bytes returnData;\n    }\n\n    // Multiple calls in one! (Replaced by block_and_aggregate and try_block_and_aggregate)\n    // Reverts if any call fails.\n    function aggregate(Call[] memory calls)\n        public\n        returns (uint256 blockNumber, bytes[] memory returnData)\n    {\n        blockNumber = block.number;\n        returnData = new bytes[](calls.length);\n        for(uint256 i = 0; i < calls.length; i++) {\n            // we use low level calls to intionally allow calling arbitrary functions.\n            // solium-disable-next-line security/no-low-level-calls\n            (bool success, bytes memory ret) = calls[i].target.call(calls[i].callData);\n            require(success, \"Multicall2 aggregate: call failed\");\n            returnData[i] = ret;\n        }\n    }\n\n    // Multiple calls in one!\n    // Reverts if any call fails.\n    // Use when you are querying the latest block and need all the calls to succeed.\n    // Check the hash to protect yourself from re-orgs!\n    function block_and_aggregate(Call[] memory calls)\n        public\n        returns (uint256 blockNumber, bytes32 blockHash, Result[] memory returnData)\n    {\n        (blockNumber, blockHash, returnData) = try_block_and_aggregate(true, calls);\n    }\n\n    // Multiple calls in one!\n    // If `require_success == true`, this revert if a call fails.\n    // If `require_success == false`, failures are allowed. Check the success bool before using the returnData.\n    // Use when you are querying the latest block.\n    // Returns the block and hash so you can protect yourself from re-orgs.\n    function try_block_and_aggregate(bool require_success, Call[] memory calls)\n        public\n        returns (uint256 blockNumber, bytes32 blockHash, Result[] memory returnData)\n    {\n        blockNumber = block.number;\n        blockHash = blockhash(blockNumber);\n        returnData = try_aggregate(require_success, calls);\n    }\n\n    // Multiple calls in one!\n    // If `require_success == true`, this revert if a call fails.\n    // If `require_success == false`, failures are allowed. Check the success bool before using the returnData.\n    // Use when you are querying a specific block number and hash.\n    function try_aggregate(bool require_success, Call[] memory calls)\n        public\n        returns (Result[] memory returnData)\n    {\n        returnData = new Result[](calls.length);\n\n        for(uint256 i = 0; i < calls.length; i++) {\n            // we use low level calls to intionally allow calling arbitrary functions.\n            // solium-disable-next-line security/no-low-level-calls\n            (bool success, bytes memory ret) = calls[i].target.call(calls[i].callData);\n\n            if (require_success) {\n                // TODO: give a more useful message about specifically which call failed\n                require(success, \"Multicall2 aggregate: call failed\");\n            }\n\n            returnData[i] = Result(success, ret);\n        }\n    }\n\n\n    // Helper functions\n    function getBlockHash() public view returns (bytes32 blockHash) {\n        blockHash = blockhash(block.number);\n    }\n    function getBlockNumber() public view returns (uint256 blockNumber) {\n        blockNumber = block.number;\n    }\n    function getCurrentBlockCoinbase() public view returns (address coinbase) {\n        coinbase = block.coinbase;\n    }\n    function getCurrentBlockDifficulty() public view returns (uint256 difficulty) {\n        difficulty = block.difficulty;\n    }\n    function getCurrentBlockGasLimit() public view returns (uint256 gaslimit) {\n        gaslimit = block.gaslimit;\n    }\n    function getCurrentBlockTimestamp() public view returns (uint256 timestamp) {\n        // solium-disable-next-line security/no-block-members\n        timestamp = block.timestamp;\n    }\n    function getEthBalance(address addr) public view returns (uint256 balance) {\n        balance = addr.balance;\n    }\n    function getLastBlockHash() public view returns (bytes32 blockHash) {\n        blockHash = blockhash(block.number - 1);\n    }\n}\n",
  "sourcePath": "/home/ski/code/multicall-truffle/contracts/Multicall.sol",
  "compiler": {
    "name": "solc",
    "version": "0.5.16+commit.9c3226ce.Emscripten.clang"
  },
  "schemaVersion": "3.0.23",
  "updatedAt": "2020-04-08T22:16:01.911Z",
  "devdoc": {
    "author": "Michael Elliot <mike@makerdao.com>Joshua Levine <joshua@makerdao.com>Nick Johnson <arachnid@notdot.net>Bryan Stitt <bryan@satoshiandkin.com>",
    "methods": {},
    "title": "Multicall2 - Aggregate results from multiple read-only function calls. Allow failures"
  },
  "userdoc": {
    "methods": {}
  }
}